:020000020000FC
:0200000012C02C
:02000A0028C00C
:100026000FED0DBF0FE107BB00EE08BB00BD00E8FA
:1000360009BF0EE405BD00E204BD03E00BBD08EEFA
:100046000ABD202F02E80FBD09E10EBD789400001D
:1000560000000000FCCF0F930FB70F93B59B2FC086
:10006600B79B16C0B69910C00FE0200F00E0301FF6
:10007600C19808E9021708E0030720F438E028E9E8
:10008600C09A989A3BBD2ABD0F910FBF0F91189544
:100096000FE0201B00E0300BC09808EE021703E0CB
:1000A600030720F033E028EEC19A98983BBD2ABD9D
:1000B6000F910FBF0F911895989BD6CFE9CF989BBC
:0400C600D3CFE6CFDF
:00000001FF
